{
  "_format": "hh-sol-artifact-1",
  "contractName": "MedicalRecords",
  "sourceName": "contracts/MedicalRecords.sol",
  "abi": [
    {
      "anonymous": false,
      "inputs": [
        {
          "indexed": false,
          "internalType": "string",
          "name": "fileHash",
          "type": "string"
        },
        {
          "indexed": false,
          "internalType": "address",
          "name": "uploadedBy",
          "type": "address"
        },
        {
          "indexed": false,
          "internalType": "uint256",
          "name": "timestamp",
          "type": "uint256"
        }
      ],
      "name": "RecordUploaded",
      "type": "event"
    },
    {
      "inputs": [
        {
          "internalType": "uint256",
          "name": "index",
          "type": "uint256"
        }
      ],
      "name": "getRecord",
      "outputs": [
        {
          "internalType": "string",
          "name": "",
          "type": "string"
        },
        {
          "internalType": "address",
          "name": "",
          "type": "address"
        },
        {
          "internalType": "uint256",
          "name": "",
          "type": "uint256"
        }
      ],
      "stateMutability": "view",
      "type": "function"
    },
    {
      "inputs": [],
      "name": "getRecordCount",
      "outputs": [
        {
          "internalType": "uint256",
          "name": "",
          "type": "uint256"
        }
      ],
      "stateMutability": "view",
      "type": "function"
    },
    {
      "inputs": [
        {
          "internalType": "uint256",
          "name": "",
          "type": "uint256"
        }
      ],
      "name": "records",
      "outputs": [
        {
          "internalType": "string",
          "name": "fileHash",
          "type": "string"
        },
        {
          "internalType": "address",
          "name": "uploadedBy",
          "type": "address"
        },
        {
          "internalType": "uint256",
          "name": "timestamp",
          "type": "uint256"
        }
      ],
      "stateMutability": "view",
      "type": "function"
    },
    {
      "inputs": [
        {
          "internalType": "string",
          "name": "_fileHash",
          "type": "string"
        }
      ],
      "name": "uploadRecord",
      "outputs": [],
      "stateMutability": "nonpayable",
      "type": "function"
    }
  ],
  "bytecode": "0x6080604052348015600f57600080fd5b50610a9b8061001f6000396000f3fe608060405234801561001057600080fd5b506004361061004c5760003560e01c806303e9e6091461005157806334461067146100835780637fb869bb146100b5578063ca267f28146100d1575b600080fd5b61006b60048036038101906100669190610474565b6100ef565b60405161007a93929190610581565b60405180910390f35b61009d60048036038101906100989190610474565b610233565b6040516100ac93929190610581565b60405180910390f35b6100cf60048036038101906100ca91906106f4565b610315565b005b6100d961041e565b6040516100e6919061073d565b60405180910390f35b6060600080600080858154811061010957610108610758565b5b9060005260206000209060030201604051806060016040529081600082018054610132906107b6565b80601f016020809104026020016040519081016040528092919081815260200182805461015e906107b6565b80156101ab5780601f10610180576101008083540402835291602001916101ab565b820191906000526020600020905b81548152906001019060200180831161018e57829003601f168201915b505050505081526020016001820160009054906101000a900473ffffffffffffffffffffffffffffffffffffffff1673ffffffffffffffffffffffffffffffffffffffff1673ffffffffffffffffffffffffffffffffffffffff1681526020016002820154815250509050806000015181602001518260400151935093509350509193909250565b6000818154811061024357600080fd5b9060005260206000209060030201600091509050806000018054610266906107b6565b80601f0160208091040260200160405190810160405280929190818152602001828054610292906107b6565b80156102df5780601f106102b4576101008083540402835291602001916102df565b820191906000526020600020905b8154815290600101906020018083116102c257829003601f168201915b5050505050908060010160009054906101000a900473ffffffffffffffffffffffffffffffffffffffff16908060020154905083565b600060405180606001604052808381526020013373ffffffffffffffffffffffffffffffffffffffff1681526020014281525090506000819080600181540180825580915050600190039060005260206000209060030201600090919091909150600082015181600001908161038b9190610993565b5060208201518160010160006101000a81548173ffffffffffffffffffffffffffffffffffffffff021916908373ffffffffffffffffffffffffffffffffffffffff1602179055506040820151816002015550507fb7f994babdd08bade37cd92420deedb09cb9361d51f8ce7f0a96e7678194755782334260405161041293929190610581565b60405180910390a15050565b60008080549050905090565b6000604051905090565b600080fd5b600080fd5b6000819050919050565b6104518161043e565b811461045c57600080fd5b50565b60008135905061046e81610448565b92915050565b60006020828403121561048a57610489610434565b5b60006104988482850161045f565b91505092915050565b600081519050919050565b600082825260208201905092915050565b60005b838110156104db5780820151818401526020810190506104c0565b60008484015250505050565b6000601f19601f8301169050919050565b6000610503826104a1565b61050d81856104ac565b935061051d8185602086016104bd565b610526816104e7565b840191505092915050565b600073ffffffffffffffffffffffffffffffffffffffff82169050919050565b600061055c82610531565b9050919050565b61056c81610551565b82525050565b61057b8161043e565b82525050565b6000606082019050818103600083015261059b81866104f8565b90506105aa6020830185610563565b6105b76040830184610572565b949350505050565b600080fd5b600080fd5b7f4e487b7100000000000000000000000000000000000000000000000000000000600052604160045260246000fd5b610601826104e7565b810181811067ffffffffffffffff821117156106205761061f6105c9565b5b80604052505050565b600061063361042a565b905061063f82826105f8565b919050565b600067ffffffffffffffff82111561065f5761065e6105c9565b5b610668826104e7565b9050602081019050919050565b82818337600083830152505050565b600061069761069284610644565b610629565b9050828152602081018484840111156106b3576106b26105c4565b5b6106be848285610675565b509392505050565b600082601f8301126106db576106da6105bf565b5b81356106eb848260208601610684565b91505092915050565b60006020828403121561070a57610709610434565b5b600082013567ffffffffffffffff81111561072857610727610439565b5b610734848285016106c6565b91505092915050565b60006020820190506107526000830184610572565b92915050565b7f4e487b7100000000000000000000000000000000000000000000000000000000600052603260045260246000fd5b7f4e487b7100000000000000000000000000000000000000000000000000000000600052602260045260246000fd5b600060028204905060018216806107ce57607f821691505b6020821081036107e1576107e0610787565b5b50919050565b60008190508160005260206000209050919050565b60006020601f8301049050919050565b600082821b905092915050565b6000600883026108497fffffffffffffffffffffffffffffffffffffffffffffffffffffffffffffffff8261080c565b610853868361080c565b95508019841693508086168417925050509392505050565b6000819050919050565b600061089061088b6108868461043e565b61086b565b61043e565b9050919050565b6000819050919050565b6108aa83610875565b6108be6108b682610897565b848454610819565b825550505050565b600090565b6108d36108c6565b6108de8184846108a1565b505050565b5b81811015610902576108f76000826108cb565b6001810190506108e4565b5050565b601f82111561094757610918816107e7565b610921846107fc565b81016020851015610930578190505b61094461093c856107fc565b8301826108e3565b50505b505050565b600082821c905092915050565b600061096a6000198460080261094c565b1980831691505092915050565b60006109838383610959565b9150826002028217905092915050565b61099c826104a1565b67ffffffffffffffff8111156109b5576109b46105c9565b5b6109bf82546107b6565b6109ca828285610906565b600060209050601f8311600181146109fd57600084156109eb578287015190505b6109f58582610977565b865550610a5d565b601f198416610a0b866107e7565b60005b82811015610a3357848901518255600182019150602085019450602081019050610a0e565b86831015610a505784890151610a4c601f891682610959565b8355505b6001600288020188555050505b50505050505056fea2646970667358221220036703d6fde7c3c8f2fe405b7af5ae3ec5fa747a3f51110a1082786d07eddb6c64736f6c634300081c0033",
  "linkReferences": {},
  "deployedLinkReferences": {}
}